:200000000200260200F97542C811530200E1F17F64AE4212004EDEFB1542120040DFF2225E
:200020007F64AE0200F790011775BB707F00780079007A007B647C007D007E0075609675CE
:200040006132758912758C38758A38758D3C758BB075C80475CA0075CB0075C901D2AFD24D
:20006000ABD28ED2A9D28CD2A8D28CD2ADD2CAC29180FEC0E0C0D009B91461790030B60210
:2000800080080BBBC80F7BC8800B30B70280061BBB2802AB28E89B40045008800A05611507
:2000A000608004056015610FBF02117F00EB75F06484FCC5F075F00A84FDAEF0EE90011714
:2000C0009312010BED9001179312010BEC9001179312010B7E007D007C007800D0D0D0E0A5
:2000E00032C0E0C0D0DA0BB2913091047A6080027A61D0D0D0E0320A32080EBE0A0C0D7E47
:2001000000BD0A060C7D00BC0A00327808C2B43392C5D2B4D8F722C0F9A4B0999282F88068
:01012000904E
:00000001FF
