:2000000075280612005E1200A760F81200B585212085222185232285242385252490016C06
:2000200093F525D528DDE52090019493F520E52190019493F521E52290019493F522E523B5
:2000400090019493F523E52490019493F524E52590019493F5251201501200F680F878209F
:2000600079067A209080047400F0E6F0908002EAF003FA12009E08D9EB22782079067A20E1
:2000800090016CE693F5F09080047400F0E5F0F0908002EAF003FA12009E08D9E3227F02C8
:2000A0007EFFDEFEDFFA229080027400F0908001E0F4540F2279207A067D007C03E9F4908A
:2000C0008002F0F403F9908001E0F4540F70030DDAEB7F041340031CDFFAEC75F006A42D3B
:2000E00090017C93F526908002E4F012009E1200A770F3E52622E52504F525B40A50752596
:2001000000E52404F524B40645752400E52304F523B40A3A752300E52204F522B4062F75ED
:200120002200E520B4020302013DE52104F521B40A1C752100E52004F52002014EE5210496
:20014000F521B4040975210075200002014E222275290A12007A752A0612007A752B0112F0
:20016000007AD52BFAD52AF1D529E8223F065B4F666D7D077F6F777C395E79710708090A49
:2001800010FF0405060B11140102030C1215000F0E0D1316FFFFFFFFFFFF0107FFFFFFFF87
:2001A000FFFFFFFFFFFFFFFFFFFFFFFFFFFFFFFFFFFFFFFFFFFFFFFFFFFFFFFFFFFFFFFF5F
:2001C000FFFFFFFFFFFFFFFFFFFFFFFFFFFFFFFFFFFFFF00FFFFFFFFFFFFFFFFFFFFFFFF3E
:2001E000FFFFFF03FFFFFFFFFFFFFFFFFFFFFF02FFFFFFFFFFFFFFFFFFFF04FFFFFFFFFF13
:20020000FF05FF09FFFFFFFFFFFFFFFFFFFFFFFFFF06FF08FFFFFFFFFFFFFFFFFFFFFFFFDE
:20022000FFFFFFFFFFFFFFFFFFFFFFFFFFFFFFFFFFFFFFFFFFFFFFFFFFFFFFFFFFFFFFFFDE
:20024000FFFFFFFFFFFFFFFFFFFFFFFFFFFFFFFFFFFFFFFFFFFFFFFFFFFFFFFFFFFFFFFFBE
:20026000FFFFFFFFFFFFFFFFFFFFFFFFFFFFFFFFFFFFFFFFFFFFFFFFFFFFFFFFFFFFFFFF9E
:14028000FFFFFFFFFFFFFFFFFFFFFFFFFFFFFFFFFFFFFFFF7E
:00000001FF
